:020000040000FA
:10C20000A04B0020FD1801007DAE0100D1180100F7
:10C21000D1180100D1180100D11801000000000060
:10C220000000000000000000000000008512010076
:10C23000D11801000000000031120100D1180100E6
:10C240003D1301003D1301003D1301003D130100AA
:10C250003D1301003D1301003D1301003D1301009A
:10C260003D1301003D1301003D1301003D1301008A
:10C270003D1301003D1301003D1301003D1301007A
:10C280003D1301003D1301003D1301003D1301006A
:10C290003D1301003D1301003D1301003D1301005A
:10C2A0003D1301003D1301003D1301003D1301004A
:10C2B0003D1301003D1301003D1301003D1301003A
:10C2C0003D1301003D1301003D1301003D1301002A
:10C2D0003D1301003D1301003D1301003D1301001A
:10C2E0003D1301003D1301003D1301003D1301000A
:10C2F0003D1301003D1301003D1301003D130100FA
:10C3000001F0FF01102A2BDB10F0070F08D010F806
:10C31000013B013A8B422DD010F0070F42B3F6D10A
:10C32000F0B441EA012141EA014122F007047FF023
:10C3300000070023F0E80256083C85EA010586EA7A
:10C34000010685FA47F5A3FA87F586FA47F6A5FAB6
:10C3500087F68EB9EED1F0BC01F0FF0102F00702C2
:10C3600032B110F8013B013A83EA010313B1F8D16D
:10C370000020704701387047002D06BF354603384E
:10C38000073815F0010F07D1013015F4807F02BF87
:10C39000013015F4C03F0130F0BC0138704700BFD8
:10C3A00081F0004102E000BF83F0004330B54FEA66
:10C3B00041044FEA430594EA050F08BF90EA020FD3
:10C3C0001FBF54EA000C55EA020C7FEA645C7FEA66
:10C3D000655C00F0E2804FEA5454D4EB5555B8BF89
:10C3E0006D420CDD2C4480EA020281EA030382EAFA
:10C3F000000083EA010180EA020281EA0303362D8C
:10C4000088BF30BD11F0004F4FEA01314FF4801C5E
:10C410004CEA113102D0404261EB410113F0004F70
:10C420004FEA03334CEA133302D0524263EB430327
:10C4300094EA050F00F0A780A4F10104D5F1200EC5
:10C440000DDB02FA0EFC22FA05F2801841F1000120
:10C4500003FA0EF2801843FA05F359410EE0A5F1F4
:10C4600020050EF1200E012A03FA0EFC28BF4CF025
:10C47000020C43FA05F3C01851EBE37101F00045DB
:10C4800007D54FF0000EDCF1000C7EEB00006EEBE8
:10C490000101B1F5801F1BD3B1F5001F0CD3490872
:10C4A0005FEA30004FEA3C0C04F101044FEA4452C9
:10C4B00012F5800F80F09A80BCF1004F08BF5FEA50
:10C4C000500C50F1000041EB045141EA050130BD30
:10C4D0005FEA4C0C404141EB0101013C28BFB1F542
:10C4E000801FE9D291F0000F04BF01460020B1FA8D
:10C4F00081F308BF2033A3F10B03B3F120020CDA60
:10C500000C3208DD02F1140CC2F10C0201FA0CF03D
:10C5100021FA02F10CE002F11402D8BFC2F1200CA2
:10C5200001FA02F120FA0CFCDCBF41EA0C01904058
:10C53000E41AA2BF01EB0451294330BD6FEA0404A1
:10C540001F3C1CDA0C340EDC04F11404C4F120028C
:10C5500020FA04F001FA02F340EA030021FA04F39E
:10C5600045EA030130BDC4F10C04C4F1200220FAF5
:10C5700002F001FA04F340EA0300294630BD21FA33
:10C5800004F0294630BD94F0000F83F4801306BFF9
:10C5900081F480110134013D4EE77FEA645C18BFED
:10C5A0007FEA655C29D094EA050F08BF90EA020F84
:10C5B00005D054EA000C04BF1946104630BD91EA7C
:10C5C000030F1EBF0021002030BD5FEA545C05D17F
:10C5D0004000494128BF41F0004130BD14F58004BE
:10C5E0003CBF01F5801130BD01F0004545F0FE4132
:10C5F00041F470014FF0000030BD7FEA645C1ABF67
:10C60000194610467FEA655C1CBF0B46024650EA9D
:10C61000013406BF52EA033591EA030F41F40021C9
:10C6200030BD00BF90F0000F04BF0021704730B54F
:10C630004FF4806404F132044FF000054FF0000124
:10C6400050E700BF90F0000F04BF0021704730B5E5
:10C650004FF4806404F1320410F0004548BF4042BA
:10C660004FF000013EE700BF42004FEAE2014FEA0F
:10C6700031014FEA02701FBF12F07F4393F07F4FEA
:10C6800081F06051704732F07F4208BF704793F0ED
:10C690007F4F04BF41F40021704730B54FF4607400
:10C6A00001F0004521F000411CE700BF50EA010203
:10C6B00008BF704730B54FF000050AE050EA0102AC
:10C6C00008BF704730B511F0004502D5404261EB1C
:10C6D00041014FF4806404F132045FEA915C3FF45D
:10C6E000D8AE4FF003025FEADC0C18BF03325FEAFA
:10C6F000DC0C18BF033202EBDC02C2F1200300FAAB
:10C7000003FC20FA02F001FA03FE40EA0E0021FACF
:10C7100002F11444BDE600BF70B54FF0FF0C4CF4BD
:10C72000E06C1CEA11541DBF1CEA135594EA0C0F6F
:10C7300095EA0C0F00F0DEF82C4481EA030621EAAA
:10C740004C5123EA4C5350EA013518BF52EA0335E5
:10C7500041F4801143F4801338D0A0FB02CE4FF097
:10C760000005E1FB02E506F00042E0FB03E54FF0C7
:10C770000006E1FB03569CF0000F18BF4EF0010EBF
:10C78000A4F1FF04B6F5007F64F5407404D25FEABB
:10C790004E0E6D4146EB060642EAC62141EA55516E
:10C7A0004FEAC52040EA5E504FEACE2EB4F1FD0CB0
:10C7B00088BFBCF5E06F1ED8BEF1004F08BF5FEA2E
:10C7C000500E50F1000041EB045170BD06F00046E0
:10C7D00046EA010140EA020081EA0301B4EB5C048D
:10C7E000C2BFD4EB0C0541EA045170BD41F4801185
:10C7F0004FF0000E013C00F3AB8014F1360FDEBFAA
:10C80000002001F0004170BDC4F10004203C35DA85
:10C810000C341BDC04F11404C4F1200500FA05F308
:10C8200020FA04F001FA05F240EA020001F00042A9
:10C8300021F0004110EBD37021FA04F642EB06011F
:10C840005EEA430E08BF20EAD37070BDC4F10C0449
:10C85000C4F1200500FA04F320FA05F001FA04F20D
:10C8600040EA020001F0004110EBD37041F10001F9
:10C870005EEA430E08BF20EAD37070BDC4F1200504
:10C8800000FA05F24EEA020E20FA04F301FA05F26C
:10C8900043EA020321FA04F001F0004121FA04F214
:10C8A00020EA020000EBD3705EEA430E08BF20EAE4
:10C8B000D37070BD94F0000F0FD101F0004640001E
:10C8C00041EB010111F4801F08BF013CF7D041EAA0
:10C8D000060195F0000F18BF704703F000465200A4
:10C8E00043EB030313F4801F08BF013DF7D043EA75
:10C8F0000603704794EA0C0F0CEA135518BF95EA2B
:10C900000C0F0CD050EA410618BF52EA4306D1D1B1
:10C9100081EA030101F000414FF0000070BD50EAD0
:10C92000410606BF1046194652EA430619D094EA5A
:10C930000C0F02D150EA013613D195EA0C0F05D144
:10C9400052EA03361CBF104619460AD181EA030198
:10C9500001F0004141F0FE4141F470014FF0000050
:10C9600070BD41F0FE4141F4780170BD70B54FF0EB
:10C97000FF0C4CF4E06C1CEA11541DBF1CEA13556B
:10C9800094EA0C0F95EA0C0F00F0A7F8A4EB05044D
:10C9900081EA030E52EA03354FEA013100F0888044
:10C9A0004FEA03334FF0805545EA131343EA12630D
:10C9B0004FEA022245EA111545EA10654FEA0026C2
:10C9C0000EF000419D4208BF964244F1FD0404F57B
:10C9D000407402D25B084FEA3202B61A65EB0305D7
:10C9E0005B084FEA32024FF480104FF4002CB6EB94
:10C9F000020E75EB030E22BFB61A754640EA0C0014
:10CA00005B084FEA3202B6EB020E75EB030E22BF53
:10CA1000B61A754640EA5C005B084FEA3202B6EB94
:10CA2000020E75EB030E22BFB61A754640EA9C0053
:10CA30005B084FEA3202B6EB020E75EB030E22BF23
:10CA4000B61A754640EADC0055EA060E18D04FEAE1
:10CA5000051545EA16754FEA06164FEAC30343EA81
:10CA600052734FEAC2025FEA1C1CC0D111F4801F4E
:10CA70000BD141EA00014FF000004FF0004CB6E747
:10CA800011F4801F04BF01430020B4F1FD0C88BFE6
:10CA9000BCF5E06F3FF6AFAEB5EB030C04BFB6EBF1
:10CAA000020C5FEA500C50F1000041EB045170BDE4
:10CAB0000EF0004E4EEA113114EB5C04C2BFD4EB11
:10CAC0000C0541EA045170BD41F480114FF0000E95
:10CAD000013C90E645EA060E8DE60CEA135594EA11
:10CAE0000C0F08BF95EA0C0F3FF43BAF94EA0C0F14
:10CAF0000AD150EA01347FF434AF95EA0C0F7FF489
:10CB000025AF104619462CE795EA0C0F06D152EADC
:10CB100003353FF4FDAE1046194622E750EA4106C0
:10CB200018BF52EA43067FF4C5AE50EA41047FF4D1
:10CB30000DAF52EA43057FF4EBAE12E753B94AB9A1
:10CB4000002908BF00281CBF4FF0FF314FF0FF3015
:10CB500000F06CB9ADF1080C6DE904CE00F006F8F8
:10CB6000DDF804E0DDE9022304B070472DE9F04769
:10CB7000089E0D4604468E46002B40F082808A4275
:10CB8000174646D9B2FA82F24AB1C2F1200105FA3B
:10CB900002F320FA01F1974041EA030E94404FEA74
:10CBA0001748230CBEFBF8FCB9B208FB1CEE43EAA5
:10CBB0000E430CFB01F098420AD9FB180CF1FF352B
:10CBC00080F01681984240F21381ACF1020C3B4494
:10CBD0001B1AA4B2B3FBF8F008FB103344EA034479
:10CBE00000FB01F1A14209D93C1900F1FF3380F0AB
:10CBF0000181A14240F2FE8002383C44641A40EABE
:10CC00000C4000211EB1D4400023C6E90043BDE81A
:10CC1000F08702B9FFDEB2FA82F2002A4FD1CB1BB5
:10CC20004FEA174E1FFA87F80121B3FBFEFC250CD3
:10CC30000EFB1C3345EA034508FB0CF3AB4207D956
:10CC40007D190CF1FF3002D2AB4200F2E78084463E
:10CC5000ED1AA3B2B5FBFEF00EFB105543EA0544F6
:10CC600008FB00F8A04507D93C1900F1FF3302D2B8
:10CC7000A04500F2D7801846A4EB080440EA0C4017
:10CC8000C0E78B4208D9002E00F0AF800021C6E932
:10CC900000050846BDE8F087B3FA83F100294BD1BF
:10CCA000AB4202D3824200F2B780841A65EB0303E1
:10CCB00001209E46002EAAD0C6E9004EA7E7C2F189
:10CCC000200C01FA02F3974020FA0CF04FEA174EBD
:10CCD00021FA0CFC1843BCFBFEF1050C0EFB11CC39
:10CCE0001FFA87F845EA0C4501FB08F3AB4204FA4A
:10CCF00002F409D97D1901F1FF3C80F08B80AB4231
:10CD000040F2888002393D44EB1A85B2B3FBFEF055
:10CD10000EFB103345EA034500FB08F3AB4207D98D
:10CD20007D1900F1FF3C71D2AB426FD902383D440E
:10CD3000EB1A40EA014178E7C1F1200C8B4022FA5E
:10CD40000CF71F4320FA0CF405FA01F34FEA174ED3
:10CD500025FA0CF51C43230CB5FBFEF91FFA87F8E6
:10CD60000EFB195543EA054509FB08FAAA4502FAE4
:10CD700001F200FA01F308D97D1909F1FF3047D219
:10CD8000AA4545D9A9F102093D44A5EB0A05A4B27B
:10CD9000B5FBFEF00EFB105544EA054400FB08F815
:10CDA000A04507D93C1900F1FF352DD2A0452BD95C
:10CDB00002383C4440EA0940A4EB0804A0FB028985
:10CDC0004C45C6464D4619D316D05EB1B3EB0E02A4
:10CDD00064EB050404FA0CFCCA404CEA0202CC40A5
:10CDE000C6E900240021BDE8F087314630460EE751
:10CDF000AC46EDE6184601E74345E6D2B8EB020E35
:10CE000069EB07050138E0E72846D3E760468FE77E
:10CE10008146BAE7614677E708464BE7ACF1020C7A
:10CE20003D4415E702383C4426E700BF704700BF89
:10CE30004FF0FF3C06E000BF4FF0010C02E000BFE6
:10CE40004FF0010C4DF804CD4FEA410C7FEA6C5CC9
:10CE50004FEA430C18BF7FEA6C5C1BD001B050EA6C
:10CE6000410C0CBF52EA430C91EA030F02BF90EA57
:10CE7000020F0020704710F1000F91EA030F58BF16
:10CE8000994208BF90422CBFD8176FEAE37040F078
:10CE9000010070474FEA410C7FEA6C5C02D150EA16
:10CEA000013C07D14FEA430C7FEA6C5CD6D152EAD1
:10CEB000033CD3D05DF8040B704700BF8446104696
:10CEC00062468C461946634600E000BF01B5FFF795
:10CED000B7FF002848BF10F1000F01BD4DF808ED65
:10CEE000FFF7F4FF0CBF012000205DF808FB00BF36
:10CEF0004DF808EDFFF7EAFF34BF012000205DF890
:10CF000008FB00BF4DF808EDFFF7E0FF94BF0120DC
:10CF100000205DF808FB00BF4DF808EDFFF7CEFFDD
:10CF200094BF012000205DF808FB00BF4DF808ED1C
:10CF3000FFF7C4FF34BF012000205DF808FB00BFED
:10CF40004FEA410C7FEA6C5C02D150EA013C0AD105
:10CF50004FEA430C7FEA6C5C02D152EA033C02D1F7
:10CF60004FF0000070474FF0010070474FEA410258
:10CF700012F5001215D211D56FF47873B3EB62522B
:10CF800012D94FEAC12343F0004343EA505311F052
:10CF9000004F23FA02F018BF404270474FF00000E4
:10CFA000704750EA013005D111F0004008BF6FF022
:10CFB000004070474FF00000704700BF10F8012B91
:10CFC00011F8013B012A28BF9A42F7D0D01A7047C6
:10CFD000034613F8012B002AFBD1181A01387047B9
:10CFE0002DE9F04F446A99B016461F46CDE9046713
:10CFF000DDF8948005463CB910200CF029FAC0E910
:10D00000014468620460C4606B6A196851B15A686F
:10D010004A60012393408B6028460FF01DF86B6A2D
:10D0200000221A603B1EB9BF23F000430593002382
:10D03000C8F80030DDF81490A74BBCBF0122C8F837
:10D04000002033EA090319D1249A42F20F731360C6
:10D05000C9F31303334300F06D85269B53B99F4BEF
:10D0600023E09F4B03930833269A1360039819B06B
:10D07000BDE8F08F994B03930333F5E7DDE9043402
:10D08000CDE90C34DDE90C0100220023FFF726FF77
:10D09000804660B1249A01231360269B002B00F088
:10D0A0004685904B269A1360013B0393DEE716AB4F
:10D0B000019317AB00932846DDE90C230FF004FA27
:10D0C000C9F30A548346002C7ED00D9BCDF84C80CA
:10D0D000C3F31303DDE90C0143F07F5141F4401128
:10D0E000A4F2FF34804B0022FFF75EF974A3D3E96A
:10D0F0000023FFF711FB74A3D3E90023FFF756F9D0
:10D10000064620460F46FFF79DFA71A3D3E9002398
:10D11000FFF702FB02460B4630463946FFF746F959
:10D1200006460F46FFF722FF0022824600233046C4
:10D130003946FFF7DDFE48B15046FFF783FA324625
:10D140003B46FFF7CBFE08B90AF1FF3ABAF1160FDA
:10D1500057D8664B03EBCA03D3E90023DDE90C0182
:10D16000FFF7C6FE00284ED00AF1FF3A00230F93C6
:10D17000169B1C1B631E099345BFC4F10103069354
:10D18000002300234CBF09930693BAF1000F3CDB48
:10D19000099BCDF838A05344099300230A93229B9E
:10D1A000092B00F2B580052BC4BF043B2293229BC0
:10D1B000A3F10203CCBF00240124032B00F2B480AE
:10D1C000DFE803F02D987AA4DDE916431C4404F24D
:10D1D0003243202BC3BFC3F1400304F2124009FACB
:10D1E00003F3C3F12003C6BF26FA00F0184306FA82
:10D1F00003F0FFF717FA0123A1F1F871013C139333
:10D2000070E70123B3E70F90B2E7069BA3EB0A0395
:10D210000693CAF100030A9300230E93BFE700238D
:10D220000B93239B002B00F382804FF00109CDF874
:10D2300020904B46CDF88C906E6A002272600422DA
:10D2400002F114009842716877D928460EF0D0FE9A
:10D250006B6A30601B680393089B0E2B00F2EE8014
:10D26000002C00F0EB80BAF1000F7ADD1F4A0AF0C3
:10D270000F0302EBC303D3E900341AF4807FCDE936
:10D2800010344FEA2A145CD0194BDDE90C01D3E9C4
:10D290000823FFF76BFBCDE9040104F00F0403271B
:10D2A000134E002C4FD1DDE91023DDE90401FFF717
:10D2B0005DFBCDE904016EE00123B1E7AFF300802F
:10D2C00061436F63A787D23FB3C8608B288AC63F8C
:10D2D000FB799F501344D33F0000F07F48080200C1
:10D2E0003F080200D90502000000F83F50CA0100C3
:10D2F00028CA010000230B93239B0AEB030909F1C1
:10D300000103012B0893B8BF012395E70123F2E73E
:10D310000124002322930B944FF0FF390022CDF813
:10D3200020901223239287E701230B93F4E7DDF883
:10D330008C90CDF820904B467EE701317160520011
:10D340007EE70227ACE7E10708D5DDE91001D6E961
:10D350000023FFF7E1F9CDE9100101376410083629
:10D360009FE700F0A580CAF10004A44BA44E04F08E
:10D370000F0203EBC203D3E90023DDE90C01FFF741
:10D38000CBF9CDE90401241100230227002C40F041
:10D390008480002B8DD10F9B002B00F08B80DDE96A
:10D3A0000434CDE91034DDE91001964B0022FFF77B
:10D3B0009FFD00287ED0089B002B7BD0B9F1000F89
:10D3C00038DDDDE91001904B0022FFF7A5F9CDE92A
:10D3D00004010AF1FF3801374C463846FFF732F9AD
:10D3E000DDE90423FFF798F9884B0022FEF7DEFF02
:10D3F000A1F15076CDE910011196002C5DD1DDE947
:10D400000401834B0022FEF7CFFF02460B46CDE915
:10D410000423109A3346FFF789FD002840F09782D5
:10D42000DDE90401109A06F10043FFF761FD0028D1
:10D4300040F08B82DDE90C34CDE90434179B002BDE
:10D44000C0F25181BAF10E0F00F34D816B4B03EB2B
:10D45000CA03D3E90034CDE90634239B002B80F2C4
:10D46000DB80089B002B00F3D78040F06D82684B77
:10D470000022DDE90601FFF74FF9DDE90423FFF79C
:10D480004BFD089C2646002840F04382039F312331
:10D4900007F8013B0AF1010A3FE2E20705D5D6E9A8
:10D4A0000023FFF739F901370123641008366DE7CF
:10D4B000022770E7089CD0468FE703994F4B214421
:10D4C00012910B9903EBC403DDE9106753E90223C2
:10D4D000002946D04F490020FFF748FA3B46324624
:10D4E000FEF762FFCDE91001039FDDE90401FFF7BC
:10D4F0003DFD0446FFF7A6F802460B46DDE90401B0
:10D50000FEF752FF303402460B46CDE9042307F8FC
:10D51000014BDDE91023FFF7EBFC002865D1DDE9C5
:10D52000042338490020FEF73FFFDDE91023FFF711
:10D53000DFFC002840F0B680129B9F423FF47AAF98
:10D54000DDE91001304B0022FFF7E6F82E4BCDE964
:10D5500010010022DDE90401FFF7DEF8CDE9040146
:10D56000C3E730463946FFF7D7F8CDE91001129BE3
:10D57000039C1493DDE90401FFF7F8FC1590FFF715
:10D5800061F802460B46DDE90401FEF70DFF159B2D
:10D59000303304F8013B129B9C4206460F464FF085
:10D5A000000224D11B4BDDE91001FEF7FFFE02460D
:10D5B0000B4630463946FFF7B9FC002871D1DDE94A
:10D5C000102314490020FEF7EFFE02460B463046BA
:10D5D0003946FFF78DFC00283FF42CAF149F7B1ECB
:10D5E000149317F8013C302BF8D0C24649E0064BA3
:10D5F000FFF792F8CDE90401BCE700BF50CA010073
:10D6000028CA01000000F03F0000244000001C4038
:10D61000000014400000E03FDDE90489039FDDE9DC
:10D62000062340464946FFF7A1F9FFF79FFC044651
:10D63000FFF708F8DDE90623FFF76EF804F130067E
:10D640000B46024649464046FEF7AEFE07F8016B20
:10D65000039E089BBE1BB34238D102460B46FEF721
:10D66000A5FEDDE9062380468946FFF75FFC58BB2F
:10D67000DDE9062340464946FFF730FC08B1E107E3
:10D6800022D4284659460EF0E7FC00233B70249B29
:10D690000AF101001860269B002B3FF4E7AC1F60E5
:10D6A000E4E427463B461F4613F8012D392A07D1EB
:10D6B000039A9A42F7D10399302208F101080A70BF
:10D6C0001A7801321A7090E7D046EBE7A14B00229E
:10D6D000FFF722F80022002380468946FFF7FEFB71
:10D6E00000289CD0CDE70B9A002A00F0CD80229A2A
:10D6F000012A00F3AF80139A002A00F0A78003F2FA
:10D7000033430A9C069F069A1A440692099A0121FD
:10D710001A44284609920EF042FD0646002F0CDD01
:10D72000099B002B09DDBB42069AA8BF3B46D21AD3
:10D730000692099AFF1AD31A09930A9BF3B10B9B1D
:10D74000002B00F0A580002C10DD31462246284633
:10D750000CF050FE5A460146064628460EF028FDBB
:10D760005946804628460EF077FCC3460A9B1A1B92
:10D7700004D0594628460CF03DFE83460121284638
:10D780000EF00DFD0E9B002B044640F383801A46DD
:10D79000014628460CF02EFE229B012B04467CDD20
:10D7A0004FF00008236904EB830318690EF0A9FC0D
:10D7B000C0F12000099B184410F01F0000F08E807B
:10D7C000C0F12003042B40F38780C0F11C00069BAE
:10D7D00003440693099B034407440993069B002BCB
:10D7E00005DD59461A4628460EF07EFD8346099B04
:10D7F000002B05DD21461A4628460EF075FD04462D
:10D800000F9B002B6CD0214658460EF0CCFD002813
:10D8100066DA002359460A2228460EF034FC0B9B98
:10D820000AF1FF3A8346002B00F08B81314600233A
:10D830000A2228460EF027FCB9F1000F064600F335
:10D840009180229B022B40F38D8051E0169BC3F107
:10D85000360356E7089B5C1E0A9BA342BFBF0A9B88
:10D860000A94E21A0E9BB6BF9B181C1B0E93089BD2
:10D87000B8BF0024002BB9BF069B089A069F089BDF
:10D88000BCBF9F1A00233EE70A9C069F0B9E45E7FC
:10D890000A9A6EE7229B012B19DC049BBBB9059BFE
:10D8A000C3F313039BB9059B23F000431B0D1B051A
:10D8B00083B1069B01330693099B013309934FF013
:10D8C00001080E9B002B7FF46DAF012072E74FF033
:10D8D0000008F6E79846F4E780D018461C3076E753
:10D8E000089B002B38DC229B022B35DDDDF82090D5
:10D8F000B9F1000F0DD121464B46052228460EF006
:10D90000C2FB0146044658460EF04DFD00283FF785
:10D91000BDAD239B039F6FEA030A4FF00008214629
:10D9200028460EF099FB002E3FF4ABAEB8F1000F85
:10D9300005D0B04503D0414628460EF08DFB314658
:10D9400028460EF089FB9CE600242646E1E7C24605
:10D9500026469BE5000024400B9BDDF82090002B21
:10D9600000F0F680002F05DD31463A4628460EF0DD
:10D97000BBFC0646B8F1000F55D0716828460EF082
:10D9800037FB326902320746920006F10C010C3077
:10D990000EF0D3F80122394628460EF0A5FC039B71
:10D9A00001330893039B4B440A93049B03F0010348
:10D9B000B04609930646089B2146013B584604930E
:10D9C0000EF032FA034630330690414658460B9328
:10D9D0000EF0E9FC32468146214628460EF0FEFC58
:10D9E000C2680B9B074602BB014658460EF0DBFCA3
:10D9F0000B9B024639462846CDE90B320EF02CFB34
:10DA0000229B0C9A089F43EA0201099B0B430B9B44
:10DA10000DD1392B29D0B9F1000F01DD069B31332F
:10DA2000049A13707BE73046B9E70122E2E7B9F1C7
:10DA3000000F06DB229941EA0909099959EA010117
:10DA400020D1002AECDD59460122284608930EF029
:10DA50004BFC214683460EF0A6FC0028089B02DC06
:10DA6000DED1DA07DCD5392BD8D1049A39231370EB
:10DA70003B461F46013B17F8012C392A50D0013292
:10DA80001A704CE7002A03DD392BEED00133C7E7CB
:10DA9000089A0A9902F8013C8A422AD05946002382
:10DAA0000A2228460EF0EFFAB04583464FF00003F5
:10DAB0004FF00A024146284607D10EF0E4FA8046AC
:10DAC0000646089B0133089375E70EF0DCFA3146F1
:10DAD000804600230A2228460EF0D5FA0646F0E7D3
:10DAE000B9F1000F039ACCBF4F46012717444FF0FE
:10DAF000000859460122284608930EF0F5FB2146FE
:10DB000083460EF050FC0028B2DC02D1089BDB07F4
:10DB1000AED43B461F4613F8012D302AFAD0FEE65C
:10DB2000039A9A42A5D10AF1010A312379E7134BEE
:10DB3000FFF7BBBA269B002B7FF493AA104BFFF78D
:10DB4000B4BAB9F1000F03DC229B022B3FF7D0AE31
:10DB5000039F214658460EF067F900F1300307F89D
:10DB6000013B039ABA1A9145BADD594600230A22AD
:10DB700028460EF088FA8346EBE700BFD80502007E
:10DB80003F08020070B50378212B054602D0272BF1
:10DB900019D070BD294B2A482A49C01AC0088001F3
:10DBA00040F003000DF040F80DF04DFF4FF47A7394
:10DBB0000A46A0FB030103FB0211234AC30B43EAFD
:10DBC00041431360E5E71D4B1D4C2049E41AE4086E
:10DBD000A40144F0030420460DF026F86968CD78CE
:10DBE0008A784B7842EA05220D78194945EA0325DF
:10DBF00045EA02452A4620460DF016F80DF023FFAF
:10DC00004FF47A76A0FB062306FB0133D10B41EAE1
:10DC100043410D4B1B68C91A6423B5FBF1F201FBAC
:10DC2000125520466B43B3FBF1F30A490CF0FCFF9D
:10DC3000BDE87040022000F017BA00BF40C90100E3
:10DC4000B0C9010008CF0100D80700202BCF010088
:10DC500049CF01005ACF010070B5284B284C294903
:10DC6000E41AE408A40144F003000CF0DDFF06F020
:10DC700073F9024620B1244944F001000CF0D4FFAE
:10DC8000224806F0BDF9024620B1214944F00100C6
:10DC90000CF0CAFF0121022006F066FA054628B101
:10DCA00002461C4944F001000CF0BEFF1A481B4E0E
:10DCB00007F0E8FE306030B944F001001849BDE8D3
:10DCC00070400CF0B1BF0DB10CF064FC0DF023F905
:10DCD000306801F0CFF8134801F0C6F800F0F8F909
:10DCE00001F01EFA104944F003000CF09DFF0021E2
:10DCF0004FF4A0200AF018FAF9E700BF40C901006C
:10DD0000B0C901007ECF010092CF0100B3A5010090
:10DD1000ADCF0100CBCF0100DACF0100DC0700203E
:10DD2000E1CF010085DB0000FACF010010B50A4BFE
:10DD30000A4CE41A0A4B1B78E408A40123B10949F0
:10DD400044F003000CF070FF44F003000649BDE806
:10DD500010400CF069BF00BF40C9010058C9010064
:10DD6000FC0300202DD001003FD0010013B50A4B69
:10DD70000A480B49C01AC008800140F0030014464D
:10DD80000CF052FF062168460CF0A7FC06216846FD
:10DD9000A047002002B010BD40C9010058C90100D1
:10DDA0004DD0010013B50E4B1C786CB908216846A4
:10DDB00006F0FEFA0B4A2146012006F023FA012064
:10DDC00006F04AFA02B010BD074B08480849C01ACD
:10DDD000C0088001224640F001000CF025FFF1E769
:10DDE00062110020E7A5010040C9010058C90100E7
:10DDF00058D0010037B50E4B0E4C0F49E41AE40819
:10DE0000A401054644F003000CF00EFF46F66F3304
:10DE1000022201A92846ADF804300DF080FE20B1A1
:10DE2000064944F001000CF0FFFE03B030BD00BF16
:10DE300040C9010058C9010073D001007DD0010024
:10DE4000124B13491A68134B10B5134C1B68641A14
:10DE5000E4089A424FEA841406D244F001000F49C4
:10DE6000BDE810400CF0E0BE194600200CF097FC15
:10DE7000024620B10A4944F001000CF0D5FE44F0FE
:10DE800003000849BDE810400CF0CEBEE8070020B2
:10DE900040C90100E007002058C901003AD1010043
:10DEA00085D001009CD0010008B50A4B0022032058
:10DEB0001A700DF08AFB084808F0D2FE074B08489C
:10DEC0000849C01AC0088001BDE8084040F00300BE
:10DED0000CF0AABE621100201008002040C9010009
:10DEE00058C90100BAD0010010B512480CF070FBFF
:10DEF000044611480CF06CFB1049024620460CF019
:10DF000015FC021E0BDA0E480E4B0F49C01AC00852
:10DF10008001BDE8104040F001000CF085BE0B4CC4
:10DF20000B4B22681B689A4203D1FFF7BDFF002309
:10DF3000236010BD63110020671100206B110020C9
:10DF400058C9010040C90100F5D00100E4070020D4
:10DF5000E007002007B5074B01A918680CF02FFB5C
:10DF600004220DEB0201372000F054FF03B05DF8EE
:10DF700004FB00BFE0070020054B064A1968126841
:10DF8000914203D100221A60FFF7E4BF704700BF3F
:10DF9000E4070020E00700201FB520238DF80030A3
:10DFA0000F4B1B788DF801300E4B1B788DF802302B
:10DFB0000D4B1B788DF803300C4B1B788DF804301B
:10DFC0000B4B0DF1050118680CF0F9FA094B0DF136
:10DFD000090118680CF0F3FA05B05DF804FB00BF06
:10DFE0006C1500206E1500206B1500206D150020AB
:10DFF000EC070020E807002037B5044604300CF099
:10E00000E7FA114D114963782860024610480B70F9
:10E01000217801700F4C10480091241AE408A401E3
:10E020000E4944F003000CF0FFFD0D4B2A681B68FD
:10E030009A4204D20B4944F001000CF0F5FD03B004
:10E04000BDE83040FFF7A8BFEC0700206C150020AA
:10E050006E15002058C9010040C901000AD1010015
:10E06000E007002033D10100032810B5024603D198
:10E07000BDE81040FFF718BF0F4C104BE41AE4083E
:10E0800002284FEA84140FD103200DF09EFA0C4BA6
:10E090000C4800221A7008F0E3FD44F003000A491E
:10E0A000BDE810400CF0C0BD44F001000749BDE8D8
:10E0B00010400CF0B9BD00BF58C9010040C90100B3
:10E0C00062110020100800207AD10100B0D10100B7
:10E0D00008B51649164808F037FD1649164808F0E5
:10E0E00033FD1649164808F02FFD164A002133204B
:10E0F00000F046FE144A0021342000F041FE134A8D
:10E100000021372000F03CFE00221146322000F0B2
:10E1100037FE0F4A0021022000F032FEBDE8084021
:10E120000C490022012000F02BBE00BFE9DE0000F8
:10E130000008002041DE0000F0070020A5DD0000FF
:10E140001008002079DF0000F5DD00002DDD000063
:10E15000F9DF00006DDD00002DE9F0410B780C4681
:10E160001546062B7FD8DFE803F004172849718095
:10E1700089004A4B4A488A684A49C01AC008800147
:10E1800040F003000CF050FD474B1B68002B6AD099
:10E190002078BDE8F0411847404B41484349C01A38
:10E1A000C008800140F001000CF03EFD3E4B1B68B2
:10E1B000002B58D04FF0FF30EBE7384B38483C4E3F
:10E1C000C01AC0088001D1E9023240F00300394989
:10E1D0000CF02AFDD4E90113B5883768E2681944C8
:10E1E00078190DF0AAFC344BA1891B680D44B58049
:10E1F000002B38D03846BDE8F0411847274B284C53
:10E200002E49E41AE408A40144F003000CF00CFDCC
:10E21000AB682B491B6909684FF48262284698470E
:10E220001028024606D1274944F00200BDE8F0411B
:10E230000CF0FABC0D2801D12349F5E798B144F060
:10E2400002002249BDE8F0410CF0EEBC134B14482B
:10E250001F49C01AC008800140F003000CF0E4FC24
:10E26000174B62681A60BDE8F0810D480B4B1949E5
:10E27000C01AC008800140F00300D7E7074B0848E8
:10E280001549C01AC008800140F003000CF0CCFC16
:10E29000BDE8F041114808F0E3BC00BF40C90100EF
:10E2A00050C90100D7D1010030080020E9D1010098
:10E2B00024080020F5D101002C0800201BD2010009
:10E2C000D80000202FD2010046D201005ED201000A
:10E2D00072D2010087D2010098D2010034080020D8
:10E2E000F8B5144B144C154AE41AE408A4010B4683
:10E2F00007460E4644F0010011490CF095FC114B05
:10E300001868A0B147B13EB1836832465D683946AE
:10E310004FF0FF33A8470546002D06DA074A0A49A1
:10E320002B4644F001000CF07FFC2846F8BD4FF06E
:10E33000FF35FAE740C9010050C9010070D3010060
:10E34000A8D2010020080020B6D201002DE9F34137
:10E350000446002864D0344FDFF81481FA80334A31
:10E36000334E396000251560324A3060156098F8E8
:10E370000020BD802AB13049304808F0E5FB88F81C
:10E380000050A3681B68002B45D02D49224620462B
:10E390009847054660B12B492B4A2C48DB230CF0EB
:10E3A00095FA2B480CF092FA2748DB210CF027FC59
:10E3B000A3689B692BB10DF10701204698470028FF
:10E3C000F6DA65B11F49204A2048E3230CF07EFAB3
:10E3D00020480CF07BFA1C48E3210CF010FC30685C
:10E3E0001D4C83684FF48262DD6821460A23A847EA
:10E3F0001A4B1C6090B11A4B1A4C1B4A1B49E41A69
:10E40000E408A401034644F001000CF00DFC0020D8
:10E4100002B0BDE8F0816FF05705BCE7B880F7E7C0
:10E420006FF00500F4E700BF240800202C0800204E
:10E43000200800203008002075E400003408002087
:10E4400059E10000D3D20100C1D20100DCD20100A9
:10E45000F9D2010012D301006F150020D80000206E
:10E4600040C9010050C901007ED3010028D301003A
:10E47000FD03002010B50D4B0D4C0E49E41AE408C5
:10E48000A40144F003000CF0CFFB0B4BDA881968B1
:10E490000A4B1868FFF75AFF024630B144F00100FA
:10E4A0000749BDE810400CF0BFBB10BD40C90100DA
:10E4B00050C9010036D301002408002020080020A4
:10E4C0004AD30100014B00229A80704724080020A3
:10E4D000014B1860704700BF2C080020014B1860EA
:10E4E000704700BF300800200548064B064A074920
:10E4F000C01AC008800140F003000CF095BB00BFBB
:10E5000068C9010040C90100C9D601008FD30100CC
:10E51000F8B5114B114CE41AE408114BA4010D4657
:10E52000074616460F491A4644F004000CF07CFBDF
:10E530004DB1082D2B460C4928BF08233A4644F01C
:10E54000030001F0CDFE0948FEF742FD81B2074805
:10E55000B0470020F8BD00BF40C9010068C90100F4
:10E56000D5D601008BD3010092D301009CD30100CA
:10E5700038B50A480A4B0B4D0B49C01AC008800138
:10E58000144640F00300094A0CF04EFB2846FEF703
:10E590001FFD81B22846A047002038BD68C9010090
:10E5A00040C901009CD301008FD30100BDD60100FA
:10E5B00070B50E4B0E4CE41AE4080E4BA4010D4648
:10E5C00006460D491A4644F004000CF02DFB5DB1DF
:10E5D000082D2B46324644F003000849BDE8704040
:10E5E00028BF082301F07CBE70BD00BF40C90100F8
:10E5F00068C90100E5D601008BD3010092D3010068
:10E6000037B5374C617823780022884207D102B1B0
:10E61000607003B030BD014601220020F5E70B28F1
:10E62000F6D801A252F820F059E6000083E6000077
:10E630008FE60000BFE60000CDE6000011E6000016
:10E6400017E6000011E60000A9E6000017E600004A
:10E6500017E60000D5E6000000256570FFF732FFE1
:10E66000237803B125701F4B1F48204A2049C01A48
:10E67000C008800140F0040003B0BDE830400CF059
:10E68000D3BA012293426270C3D02270C1E7022341
:10E69000637000220023CDE9002316484FF4A02226
:10E6A00000230AF0A1FAB4E70823637011480DF0C3
:10E6B00005FA114803B0BDE8304008F0D1BA032292
:10E6C000022B6270A5D002232370A2E704230B481B
:10E6D0006370EFE7012B9ED10B23637099E700BFB6
:10E6E0003409002040C9010068C90100D3D50100E8
:10E6F0009FD3010018040020680900205809002059
:10E7000008B50848084B094A0949C01AC0088001E1
:10E7100040F001000CF088FABDE808400B20FFF73C
:10E720006FBF00BF68C9010040C9010047D60100A2
:10E730008FD301002DE9F84F694B6A4C1A7889464E
:10E740006949641AE408012A824698464FEA84140B
:10E750000BD15B78022B0FD0072B0DD0634944F00F
:10E760000200BDE8F84F0CF05FBA022A04D15B78D2
:10E77000032B01D05E49F2E75E4E5F495F4D604F6B
:10E780004A4644F003000CF04FFA96F800B0BBF193
:10E79000000F26D15B48012333704A464FF4826351
:10E7A0005146C5E9000B0DF0D6F9574B5749A5F86E
:10E7B000049044F004001A46A7F800B00CF034FAB4
:10E7C00098F80030012B0CBF07200320FFF718FF3B
:10E7D0003B885BB1B5F804C03B8863451FD9BDE8F1
:10E7E000F88FAA889144A5F80490F1E7AB88032B31
:10E7F000F5D92B6899785A7842EA0122053292B20B
:10E80000B2F5826F3A8006D9414944F001000CF01C
:10E810000BFAFFF775FF3B88002BDBD1DFE798F899
:10E820000070012F18D13B4B186800B1C0782968DF
:10E83000012F13D10B78512B17D0374944F0010029
:10E840000CF0F2F9354944F001000CF0EDF9FFF756
:10E8500057FF00233370C2E70020E8E7022F04D1FE
:10E860000B78592B01D02E49E8E78B784A7842EA99
:10E87000032212B2531D9BB29C4501D02949DDE70A
:10E88000012F04D1CD78854201D02749D6E7023B3C
:10E89000C818CD5C4078023245EA002592B20131B9
:10E8A00000200BF0ECFF854201D02049C6E7204B49
:10E8B00016491A4644F004000CF0B6F998F80030F6
:10E8C000012B03D10820FFF79BFEC2E7022B01D1E9
:10E8D0000420F8E7174944F002000CF0A5F9B8E766
:10E8E0003409002068C9010040C90100B2D3010009
:10E8F000CDD30100B0250020E9D301004809002054
:10E9000060110020901D00201AD601008BD3010059
:10E91000F9D30100500900201ED40100C3D4010026
:10E920003ED401005FD401007AD4010096D40100E6
:10E930002FD60100AED4010008B50848084B094A9B
:10E940000949C01AC008800140F001000CF06CF9C0
:10E95000BDE808400A20FFF753BE00BF68C90100A8
:10E9600040C9010008D601008FD3010070B5164BD5
:10E97000164C1749E41AE408164BA40144F00406A7
:10E9800005461A4630460CF04FF9CDB9124B1049E6
:10E990001A4630460CF048F9104B1B78012B04D175
:10E9A0000220BDE87040FFF72BBE022B01D10620EC
:10E9B000F7E744F001000A49BDE870400CF034B9B3
:10E9C000BDE87040FFF7B8BF40C9010068C9010049
:10E9D0008BD30100ACD60100F3D50100340900202F
:10E9E000AED40100F8B50746244B25482549264CEE
:10E9F000C01AC008254B80011A4640F004000CF0F4
:10EA000013F9234B1B78022B0CBF05200120FFF7C5
:10EA1000F7FD204AB7F908501460002151603A7898
:10EA20003E89012A0CBF5122592222706A1C12B25F
:10EA30006270C2F30722A2707A78E2702EB1796810
:10EA400019B13246201D0DF078F81349F21C002050
:10EA50000BF015FF0436A319A91DA05589B2000AB1
:10EA60005870B1F5826F0B4B28BF4FF48261186864
:10EA70009980BDE8F840FFF733BC00BF40C90100F2
:10EA800068C901008BD30100A0210020E1D501005D
:10EA90003409002050090020A12100201FB5194B86
:10EAA0005A78042A0ED0022A0CD01748174B18495E
:10EAB000C01AC008800140F001000CF0B5F84FF01A
:10EAC000FF300EE0134B1B6873B1DB78029001221C
:10EAD00001A88DF804208DF80530ADF80C10FFF773
:10EAE00081FF05B05DF804FB084B07480A49C01ACE
:10EAF000C008800140F001000CF096F8FFF71CFF01
:10EB0000DDE700BF3409002068C9010040C90100E9
:10EB1000DDD4010048090020FBD40100054B002092
:10EB20000C2202FB00F1C95C11B101301428F8D1AC
:10EB3000704700BF44080020F8B505460C46FFF7B3
:10EB4000EDFF0C4B00220C26824202DB4FF0FF301F
:10EB50000BE006FB02F1CF5CAF4207D144B10B449E
:10EB600000205A689B686260A360F8BD0132EBE741
:10EB70002046FAE74408002030B51F4B1F4C2049BF
:10EB8000E41AE4081F4BA4011A4689B044F00400BB
:10EB90000CF04AF81C4B1B6833B91C4944F00100C7
:10EBA0000CF042F809B030BDDD7802A92846FFF725
:10EBB000C3FFD0B946F67473ADF80430049B01ACC2
:10EBC00013B10221204698470223ADF81C300123DF
:10EBD0008DF81E300E4B8DF814501B68069405A856
:10EBE00098470020FFF70CFDDCE70A4944F00100DC
:10EBF0000CF01AF8F5E700BF40C9010068C9010030
:10EC00008BD301005CD601005009002018D501000B
:10EC10004409002025D501002DE9F041204B214C6D
:10EC20002149E41AE408214BA4011A4686B044F0B5
:10EC300004000BF0F9FF0020FFF7E2FC1C4B1E68FC
:10EC40003EB91C4944F001000BF0EEFF06B0BDE8F0
:10EC5000F081F77896F80280757869463846FFF7B4
:10EC60006BFFB0B945EA0824029B013CA4B204360C
:10EC700013B121463046984700238DF816300E4BCD
:10EC80008DF80C701B680496ADF8144003A89847E3
:10EC9000DCE70A493A4644F001000BF0C5FFD5E72E
:10ECA00040C9010068C901008BD3010088D601006A
:10ECB0004809002018D501004409002041D5010071
:10ECC0002DE9F041254B264C2649E41AE408264B51
:10ECD000A4011A4686B044F004000BF0A5FF234BB4
:10ECE0001E683EB9224944F001000BF09DFF06B0BA
:10ECF000BDE8F081F77896F8028075786946384665
:10ED0000FFF71AFFD8B945EA0824019B013CA4B2D9
:10ED1000043683B1174A21463046984700238DF8C0
:10ED20001630154B8DF80C701B680496ADF8144026
:10ED300003A89847DBE71946FFF7B0FEEEE744F07B
:10ED400001000E490BF070FF47F27523022103A862
:10ED5000ADF80C30FFF7A2FEC9E700BF40C90100C3
:10ED600068C901008BD3010074D601004809002056
:10ED700018D501009DEA00004409002061D501007A
:10ED80002DE9FF41064688461746FFF7C7FE1428BF
:10ED900004460ED11A4B1B481B49C01AC0088001FB
:10EDA00040F001000BF040FF4FF0FF3004B0BDE831
:10EDB000F08100213046FFF7BFFE60B9104B1148CB
:10EDC0001249C01AC008800140F002000BF02CFF6D
:10EDD0006FF00100EAE7CDE9028700250C4BADF8A2
:10EDE00005500C208DF807508DF8046004AA00FB34
:10EDF000043312E9070083E807002846D6E700BF7E
:10EE000040C9010068C901007DD501008ED501000F
:10EE1000440800201FB50F4C237873B10E4A0F48E9
:10EE20000F49801AC008800140F001000D4A0BF024
:10EE3000FBFE4FF0FF3004B010BD8DF804308DF8AC
:10EE40000500012301A80291ADF80C202370FFF703
:10EE5000C9FDF0E73409002040C9010068C901007C
:10EE6000A6D501009CD6010008B1014B186070477F
:10EE70004409002010B52A494FF48262FFF766FA70
:10EE8000044668B1274B28482849C01AC0088001A9
:10EE900040F001000BF0C8FE6FF00504204610BDE5
:10EEA000FFF7AEFB224A1E48D460C2E90144214666
:10EEB0004FF482620CF062FE4FF4826221461D48DC
:10EEC0000CF05CFE1C4B1D48C3E900441C4BC3E91D
:10EED0000044FFF7FDFA1B48FFF700FB1A4B1A78B6
:10EEE000002ADBD101221A70184B194A1A602146F8
:10EEF000F02218480CF042FE1749184807F024FE8B
:10EF00001749184807F020FE174A18491120FFF743
:10EF100037FF174A17491220FFF732FFBEE700BF3D
:10EF2000901D002040C9010068C90100B7D501004B
:10EF300034090020A02100204809002035E7000006
:10EF4000500900206DE900008F1D002044090020B9
:10EF5000E9A5010044080020C1EC00005809002088
:10EF600019EC000068090020E9E4000071E50000E8
:10EF7000B1E5000011E5000008B502210148904705
:10EF8000002008BD9CD30100F8B5044615460BF0DF
:10EF900055FC0646201D0BF051FC154C1549074643
:10EFA0001548241AE408A40144F003003B46324605
:10EFB0000BF03AFEB8B20CF0A5FD044690B1014644
:10EFC0003A4630460BF059FB064638B9B9B22046EE
:10EFD000A84720460CF08FFD3046F8BD00210846BA
:10EFE000A847F9E70146A8474FF0FF36F4E700BF0E
:10EFF00070C90100FFD6010040C90100F8B50546FF
:10F0000014460BF01BFC0646281D0BF017FC0146AE
:10F01000074630460BF0C3FB054680B9094802217C
:10F02000A0470948094C0A49241AE408A40144F0FD
:10F0300003003B4632460BF0F7FD2846F8BD0021A1
:10F040000846EDE79CD3010040C9010070C90100EA
:10F050001BD70100F7B5044615460BF0EFFB06463B
:10F06000201D0BF0EBFB0F4C0F4907460F48241AED
:10F07000E408A40144F003003B4632460BF0D4FD03
:10F0800001AA394630460BF0A3FB044638B9019B70
:10F09000009304216846A847204603B0F0BD002134
:10F0A0000846F8E770C9010037D7010040C90100E0
:10F0B0002DE9F041074615460BF0C0FB0646381D0A
:10F0C0000BF0BCFB0E4C0F4980460F48241AE40895
:10F0D000A40144F00300434632460BF0A5FD42462E
:10F0E00007F1080130460BF021FB044628B9074818
:10F0F0000221A8472046BDE8F08100210846F8E734
:10F1000070C9010052D7010040C901009CD3010021
:10F1100008B5022101489047002008BD9CD301009A
:10F1200008B5124900222120FFF72AFE10490022CB
:10F130002320FFF725FE0F4900222420FFF720FEA1
:10F140000D4900222720FFF71BFE0C490022222038
:10F15000FFF716FE0A4900222520FFF711FEBDE841
:10F160000840084900222620FFF70ABE53A80100E4
:10F17000B1F00000FDEF000011F1000089EF000088
:10F1800055F0000079EF000030B50D4DC0430A4442
:10F19000914201D1C04330BD11F8013B83EA000424
:10F1A00004F00F0455F8244084EA101080EA131389
:10F1B00003F00F0355F8233083EA1010E8E700BF8F
:10F1C00018CB010038B54468816004F00304032CB7
:10F1D000054602D02CB1002000E0006800236B60DF
:10F1E00038BD054A0549064845230BF06FFB024828
:10F1F00045210BF004FDEEE779D70100D8050200A8
:10F20000DCD20100014B1860704700BFDC00002019
:10F210002DE9F04FB0F81C9085B019F0080F0446A6
:10F22000039222D001290CBF49F0100949F02009AE
:10F23000A0F81C901434204606F0E4FF68B99F4AF9
:10F240009F49A048AC230BF041FB9F4821460BF09F
:10F250003DFB9A48AC210BF0D2FC039B83F3118851
:10F26000BFF36F8F05B0BDE8F08F984FDFF8548281
:10F2700009F00709022906D120460BF034FB0028CB
:10F28000D8D0012868D1D4F818B0A38BBBF1000FF7
:10F290000ADA0026256823F00703C4E9006643F074
:10F2A0000103A383019627E003F00702511F012900
:10F2B00034D8002123F00703062A25689BB2C4E94D
:10F2C00000110CD18D422A4638BF0A462AB1E18B83
:10F2D00012680131E183002AF8D143F00203A383CD
:10F2E00020460BF000FB06460028DBD0A38B43F042
:10F2F0002003A38300230193A38B03F007024A4555
:10F30000029203D0A268002A40F0F0801DB9019A51
:10F31000002A00F036814FF00009E9E0042A0ED1FE
:10F3200023F007039AB2A28320460BF0DCFA0546CD
:10F3300018B142F02002A28300250195DCE7404687
:10F34000634940F21B133A460BF0C0FA40F21B111E
:10F3500038460BF054FCEFE7032835D1B9F1000F24
:10F360000BD05C4940464FF4AB733A460BF0AEFA13
:10F370004FF4AB7138460BF042FC23685BB9564939
:10F38000404640F257133A460BF0A0FA40F25711AC
:10F3900038460BF034FC23691B6801935BB94F4975
:10F3A00040464FF4AD733A460BF090FA4FF4AD710E
:10F3B00038460BF024FCA38B23F0070343F006032D
:10F3C000A3830025AB4697E7042832D1B9F1020F99
:10F3D0000BD04349404640F25D133A460BF076FAB3
:10F3E00040F25D1138460BF00AFCE38B5BB13D49FE
:10F3F00040464FF4AF733A460BF068FA4FF4AF71E2
:10F4000038460BF0FCFB23695B6801935BB9334919
:10F41000404640F261133A460BF058FA40F261114F
:10F4200038460BF0ECFBA38B23F0070343F00403F7
:10F43000C6E7052832D1B9F1010F0BD02A49404661
:10F440004FF4B2733A460BF041FA4FF4B2713846BA
:10F450000BF0D5FB23685BB91F49404640F26513AA
:10F460003A460BF033FA40F2651138460BF0C7FB11
:10F4700023699B6801935BB9184940464FF4B47304
:10F480003A460BF023FA4FF4B47138460BF0B7FB51
:10F49000A38B23F0070343F0050391E70C4940F2E7
:10F4A0006B133A4640460BF011FA002540F26B11FF
:10F4B00038460BF0A4FB019584E700BF3FD801005C
:10F4C00065D80100DCD201007CD801009CD7010086
:10F4D000D8050200BED70100CAD70100EDD7010050
:10F4E00004D801001AD8010029D801004FF0010901
:10F4F00043F0080304F1140AA383504606F082FE89
:10F5000068B93A4A3A49AC2340460BF0DFF939482A
:10F5100051460BF0DBF93548AC210BF070FB039B37
:10F5200083F31188BFF36F8FB9F1000F38D1002D2D
:10F530004BD1019B13B13049204698474FF020032F
:10F54000EFF3118B83F31288BFF36F8F5046CDF822
:10F550000CB006F049FE68B9244A28498123404688
:10F560000BF0B4F9264851460BF0B0F91F48812141
:10F570000BF045FB504606F055FEA38B23F0080325
:10F58000A383A38BDA0628D523F01003A3830121DC
:10F59000B4F81C9009F0070900297FF46BAE49E626
:10F5A000A1680029C3D00B68029A002B38BF002342
:10F5B00099464B6820461E465B46B047B9F1000F9E
:10F5C000B5D0D9F800304946EEE72946029A2D68B1
:10F5D0005B4620460BF0A3F9A9E713F020011EBFFC
:10F5E00023F02003A3830221D2E700BF3FD801000C
:10F5F00065D801007CD8010005F6000091D8010013
:10F60000A6D80100F8B504460D4600F114064FF0E7
:10F610002003EFF3118783F31288BFF36F8F304617
:10F6200006F0E2FD68B90C4A0C490D4881230BF045
:10F630004DF90C4831460BF049F9074881210BF090
:10F64000DEFA304606F0EEFDA5613A46204601217D
:10F65000BDE8F840FFF7DCBD3FD8010091D80100BC
:10F66000DCD20100A6D801002DE9F04704460F4680
:10F670000BF06BF9051E5EDB04F114094FF020035B
:10F68000EFF3118A83F31288BFF36F8F484606F0B9
:10F69000ABFD68B9384A3949394881230BF016F96E
:10F6A000384849460BF012F9334881210BF0A7FA8C
:10F6B000484606F0B7FDE38BA28B4FF6FF718B42F5
:10F6C00002F0070650D0022E24D10133E3833546E1
:10F6D0004FF00108484606F095FD68B9264A2A49C8
:10F6E0002748AC230BF0F2F8284849460BF0EEF817
:10F6F0002148AC210BF083FA8AF31188BFF36F8F96
:10F70000B8F1000F17D000233246394620460BF0DF
:10F7100006F910E0930701D0062E0FD100233B60BD
:10F720006368F3B9C4E900773546FEB95246022151
:10F730002046FFF76DFD2846BDE8F087052E18D05E
:10F74000012E0BD012490E48124A40F2C9130BF099
:10F75000BDF8104840F2C9110BF051FA6FF00405E2
:10F7600004E01F606760DFE76FF00A054FF00008F4
:10F77000B0E76FF08505F9E73FD8010091D80100A7
:10F78000DCD20100A6D8010065D801007CD80100B8
:10F7900029D801009CD70100F8B50D46002939D0C1
:10F7A00006680C1FA41BE70824F007043444A37860
:10F7B000DB070DD4184A19491948A3230BF086F822
:10F7C000184829460BF082F81348A3210BF017FACA
:10F7D000394630460BF0E5F8384436F83030C01A78
:10F7E00087420DD00C4A10490D48AB230BF06EF840
:10F7F0000E4829460BF06AF80748AB210BF0FFF9D9
:10F80000638823F00103638039463046BDE8F84041
:10F810000BF084B9F8BD00BFBED80100DFD80100ED
:10F82000DCD20100F0D8010028D901004ED9010036
:10F830004B422DE9F04703EA010731EA030306686A
:10F8400014461FD0042F3D46B94628BF0425CF1BC0
:10F8500007F1FF3A1AEA070F0ED03349334A34480A
:10F8600040F227130BF032F832480BF02FF82F48F4
:10F8700040F227110BF0C3F97CB94FF0000948465C
:10F88000BDE8F087042904D8BDE8F04711460BF025
:10F8900076B94FF000090425DAE7B368B3EBD40F6B
:10F8A000EBD904F10B013944491BC90830460BF070
:10F8B000CEF880460028E0D009F1040505EBC0052C
:10F8C000354455447F422F40A7EB09094C44A9F128
:10F8D000040307349B1B24F00704A41BB0EBD30FD5
:10F8E0004FEAD3074FEAE40408D201463A463046CD
:10F8F0000BF0FAF8414630460BF058F839463046DE
:10F900000BF04FF83844844207D2304622460BF0C1
:10F91000EBF8214630460BF049F806EBC706738832
:10F9200043F001037380AAE78AD90100BED8010021
:10F93000DCD20100A5D90100B2F5802F2DE9F041FC
:10F9400006460D46174669D33D493E4A3E4840F2B9
:10F95000A5130AF0BBFF3D480AF0B8FF40F2A5111D
:10F9600038480BF04CF9043FEC1D3D4424F00704EB
:10F9700025F007052D1B172D4FEAD5070ED8344962
:10F98000304A314840F2B5130AF0A0FF31480AF07E
:10F990009DFF2C4840F2B5110BF031F9B7FA87F80A
:10F9A000C8F124084FEA8808346008F107060023EC
:10F9B000F608E360731CBB42A7600ED92649214AB2
:10F9C000214840F2C5130AF081FF22480AF07EFF69
:10F9D0001C4840F2C5110BF012F904F11002A044CA
:10F9E0000023904529D1720042F00102628004EBAD
:10F9F000C601BA1B500023804880611924F8366084
:10FA000004EBC7074B8062537B8843F001037B8084
:10FA100031462046BDE8F0410AF0C8BF042AA2D80A
:10FA20000E49084A08484FF4D6730AF04FFF0948B8
:10FA30000AF04CFF4FF4D67192E742F8043BD0E74E
:10FA4000C2D90100BED80100DCD20100D8D9010022
:10FA500029DA010010DA010052DA0100EFD90100C1
:10FA6000F0B5094E016802460A2700200C46013114
:10FA700023789D5D6D0701D41460F0BD07FB003352
:10FA8000A3F13000F2E700BF000702002DE9F74FB5
:10FA900014469946D378244A13F802A06F2B0AF033
:10FAA000030206460F4601922DD028D8582B14BFCA
:10FAB0000A251025DDF83080AA464FF0000B52468B
:10FAC0005B4630463946FDF739F8092AD3B21FD8CC
:10FAD00030335F45DBB208BF564508F8013D01D31E
:10FAE000C84512D823789B0605D5082D16D1A378D2
:10FAF00043F00803A370404603B0BDE8F08F03F065
:10FB0000F703702BD3E70825D4E706460F46D6E760
:10FB1000019A012A0CBF37335733DAE7102DEAD1A7
:10FB2000A37843F01003E5E7000702002DE9F04F4A
:10FB3000824693B08B4691461C46002599F80000FA
:10FB400008B928463AE309F101032528029306D0B3
:10FB50005946D0470028C0F231830135F1E118221F
:10FB600000210CA80CF00AF899F80130252B59D087
:10FB7000029A164612F8013B2B2B00F08B8079D8A5
:10FB8000202B00F08C80232B00F08E809DF83830E5
:10FB900003F04402442A03D16FF386138DF8383002
:10FBA0009DF83830059643F080038DF8383033786F
:10FBB0002A2B7ED19DF8393043F001038DF839307E
:10FBC000731C05931A782E2A9DF839200CBF012149
:10FBD000002161F341028DF839200BD15A1C0592A6
:10FBE0005A782A2A7BD19DF8392042F004028DF8F8
:10FBF00039200233194611F8010B6C2800F0B68049
:10FC00007DD8682800F084806A2800F0B9804C28EC
:10FC100000F0BD809DF839206FF3C6028DF83920C1
:10FC2000194680E009F1020202928DF83B309DF8FE
:10FC30003930D90740F1498154F8048BB8F1000FED
:10FC400007DA9DF8382042F004028DF83820C8F118
:10FC500000085A0740F1428154F8047B002F80F2DB
:10FC600041819DF839306FF341038DF839304FF001
:10FC7000FF3737E12D2B06D0302B87D19DF8383058
:10FC800043F0400303E09DF8383043F004038DF85F
:10FC900038306EE79DF8383043F00803F7E79DF8F9
:10FCA000383043F01003F2E79DF8383043F020037A
:10FCB000EDE705A8FFF7D4FE059BB34281D09DF880
:10FCC00038100F90C1F3400242EAD072520062F045
:10FCD0007F0201F07D010A438DF8382071E705A805
:10FCE000FFF7BEFE9DF838301090C3F3400242EAA1
:10FCF000D07060F341038DF83830059B7AE77428A3
:10FD00009DF8392040D07A2884D11346062228E075
:10FD10005A78682A9DF8392021D1012161F3C60261
:10FD20008DF83920991C0B4613F8012B0293782A81
:10FD30009DF839308DF83B2000F2BF80572A33D828
:10FD4000412A03D0453A022A00F2B7809DF83A30A2
:10FD5000042262F302038DF83A30012384E0134653
:10FD6000022262F3C6038DF83930DCE75A786C2A38
:10FD70009DF8392001D10421D0E713460322F0E792
:10FD80009DF839300522ECE713460722E9E7BDF874
:10FD9000383023F4F04323F0020343F4804343F06C
:10FDA0000203ADF83830BEE7A2F15801202900F275
:10FDB000848001A050F821F07DFE0000BBFE000011
:10FDC000BBFE0000BBFE0000BBFE0000BBFE00004F
:10FDD000BBFE0000BBFE0000BBFE00004DFD0000AE
:10FDE000BBFE00007DFE00003DFE00004DFD00005A
:10FDF0004DFD00004DFD0000BBFE00003DFE00007B
:10FE0000BBFE0000BBFE0000BBFE0000BBFE00000E
:10FE100085FE00007DFE0000A1FE0000BBFE00008C
:10FE2000BBFE0000A1FE0000BBFE00007DFE000046
:10FE3000BBFE0000BBFE00007DFE00009DF83A10F6
:10FE4000012003F0780360F30201402B8DF83A1093
:10FE500002BF9DF8381041F001018DF83810632A77
:10FE600031D1003B18BF01239DF83820C2F3400177
:10FE70000B4363F341028DF83820D8E69DF83A1021
:10FE80000220DEE79DF83A2003F07803A3F140005A
:10FE9000032161F3020243428DF83A204341E3E734
:10FEA0009DF83A20032113F0780F61F302028DF8D8
:10FEB0003A2014BF01230023D6E79DF8383043F0E1
:10FEC00001038DF838300023CEE79DF93820002A51
:10FED000B4BFDDF83C804FF0FF38BAE69F077FF5EE
:10FEE000C6AE109F9DF839100023CDE90F339DF861
:10FEF0003A3003F00703012BC1F3C30137D1CB1E06
:10FF0000042B21D8DFE803F003070720200054F872
:10FF1000042BD31704E0073424F00704F4E8022389
:10FF2000CDE90C239DF8383013F0030655D0029B21
:10FF30004A46594650460AF04CFE0028C0F23E811F
:10FF40000544DDF80890F9E554F8042B01294FEA3F
:10FF5000E273CDE90C2305D19DF830300C930023DA
:10FF60000D93DFE70229DDD1BDF93020D1E7022B67
:10FF700023D1CB1E042B13D8DFE803F0030A0A12A7
:10FF8000120022680C920023201D0D930446C9E73D
:10FF9000073424F00700F0E80223CDE90C23F5E74D
:10FFA00054F8043B0C9301294FF000030D93D3D078
:10FFB0000229B7D1BDF83030D0E7042B07D1073480
:10FFC00024F00704F4E80223CDE90C23AAE7032B6D
:10FFD00004BF54F8043B0C93A4E79DF83B00782839
:10FFE000AFD8622820D825283FF4B2AD5828A8D130
:10FFF0000DF12E030093DDE90C0106AB0EAAFFF70D
:020000040001F9
:1000000045FD8146002F0DF12E000BDB9DF83820B9
:10001000A0EB09036FF386129F428DF8382001D9B7
:10002000FF1A0F9707463CE06338152889D801A2CC
:1000300052F820F0B30001001501010043FF000059
:1000400043FF000043FF000043FF000015010100D3
:1000500043FF000043FF000043FF000043FF000098
:1000600073010100410101004501010043FF00004F
:1000700043FF00008D00010043FF0000410101002B
:1000800043FF000043FF000041010100002FDDF8A5
:1000900030900ADB394648460BF0B2FE09EB000708
:1000A0000026B9F1000F0CD14BE74846FCF790FF52
:1000B000F4E70C9B8DF8183000260DF119070DF1AF
:1000C0001809A7EB090306B101339DF83A20D006C1
:1000D00069D5023352060F9948BF109A0B4448BFA6
:1000E0009B18B8F1000F76DD9DF83820A8EB0308C7
:1000F000C2F38003039353076DD4500661D53EB11C
:1001000059463046D047002858DB039B01351E4630
:10011000302357E01E0711D413F0100618BF202615
:10012000DDE90C23002A73F10001BFF661AF5242F2
:1001300063EB4303CDE90C232D2659E72B26EFE78C
:10014000002655E70C9848B30DF12E0300930EAA34
:1001500006AB0021FFF79AFCBDF83A3003F0EF033D
:1001600043F4F04343F010038146ADF83A300026E3
:1001700048E70C9B07293FF6E4AEDFE801F00D04E9
:10018000060D08080D0D1D70DBE61D80D9E628461A
:10019000E917C3E90001D4E61D60D2E62E4F0646FA
:1001A000A7F105098DE7110748BF013392E718460B
:1001B00059460393D0470028039B04DA13B0BDE8E7
:1001C000F08F202345444246002AA5EB080108F1A0
:1001D000FF38ECDC0D462EB159463046D04700289A
:1001E000ECDB01359DF83A30D90601D41A0705D564
:1001F00059463020D0470028E0DB01359DF83A30E1
:10020000DB0606D59DF83B005946D0470028D5DBD4
:1002100001350F9E2E44731B002B15DC3B464A46CE
:10022000594650460AF0D5FC0028C7DB0544A844CF
:10023000A8EB0503002B7FF784AE59462020D0475A
:100240000028BBDB0135F3E759463020D0470028B2
:10025000B4DB0135DFE700BF82DA010008B54FF0FB
:100260002002EFF3118382F31288BFF36F8F01F046
:100270001DFE03480AF02AFB00F0EAFEFCE700BF7F
:1002800083DA01002DE9F04F124B134C1B68134D1C
:1002900085B081468A46174698472D1B80462D110A
:1002A0000026B54202DC05B0BDE8F08F20460AF01A
:1002B000AEFC60B123680397D3F808B0BBF1000F20
:1002C00005D000975346424649462046D847013656
:1002D0001034E6E7E0000020E8C90100F8C9010099
:1002E0002DE9F04F9A46144B144C1B6885B0074615
:1002F000884603929847124B1B1B06464FEA231968
:1003000000254D4502DB05B0BDE8F08F20460AF020
:100310007EFC70B12368D3F80CB0BBF1000F08D09D
:10032000039B0093CDF804A043463246394620464D
:10033000D84701351034E4E7E0000020E8C90100A7
:10034000F8C90100054A00231370054A1360054BE4
:10035000054A1A604FF4004000F058BAB225002058
:1003600078090020E000002015AC01001A4B1B4A60
:100370009B1A9F2B70B54FEA23160BD918491948C1
:10038000194A40F24A230AF0A1FA174840F24A21DA
:100390000AF035FCBFF35B8F144B53E8005F6A1C17
:1003A00043E800210029F8D1BFF35B8F15B90B4C4E
:1003B000B54200DB70BD237B53B123689B690BB151
:1003C00020469847636804221968204600F044F8E4
:1003D00001351034ECE700BFF8C90100E8C901009D
:1003E000F1DA0100DCD20100ACDA01007C09002066
:1003F000F8B50C4F3D784DB90B4C0C4EFFF7B6FFDE
:10040000361B3611B54202DB01233B70F8BD204696
:100410000AF0FDFB18B1236820465B699847013557
:100420001034EFE7B2250020E8C90100F8C9010047
:10043000014B01221A707047B1250020044A054B78
:100440009B1AB1EBD30F34BF52F831000020704734
:1004500040C90100E8C9010070B50D4C041B24110E
:10046000013405460E46E4B248B90A490A480B4A27
:10047000D1230AF02BFA0948D1210AF0C0FB6B689E
:1004800001221C711E605A71BDE87040FFF7D0BF99
:10049000E8C90100A2DB0100DCD2010071DB010030
:1004A0000EB403B503AB014653F8042B0448019383
:1004B000FFF73CFB02B05DF804EB03B0704700BFF0
:1004C00055AC01002DE9F04F87B01F4601F0010344
:1004D00005929DF84090BDF948A0049306468846D1
:1004E00001F0020B01F008050AF0B2FB02460028F9
:1004F00044D039493046FFF7D3FF0446BBF1000F23
:1005000008D018F0440F3BD134493A463046FFF743
:10051000C7FF0444049B53B1314B324953F829209F
:10052000314B3046002A08BF1A46FFF7B9FF3DB1EC
:100530002E4B2F4953F829203046FFF7B1FF0546CF
:10054000BAF1000F16DB059B002B43D0012303FA01
:1005500009F9284B284F19F0100F18BF1F465146B4
:100560009DF84400FFF76AFF394602463046FFF720
:1005700097FF0544281907B0BDE8F08F0446BDE792
:100580001E4B18680028C4D01D4B4FF4616C1968CD
:10059000B7FBF1F7B7FBF0F100FB1177B1FBFCF211
:1005A0000CFB121C4FF47A714F434FF03C0EB7FB1B
:1005B000F0F800FB18774F43BCFBFEF30EFB13C1B2
:1005C000B7FBF0F00091CDE901800E493046FFF70E
:1005D00067FF9EE7084FC2E7C7DB0100CBDB0100E6
:1005E00058CB01008FD30100B9DB01006CCB0100B7
:1005F000F0DB0100C3DB0100BEDB0100800900204D
:1006000084090020D4DB010038B50C46E10705461B
:1006100003D5084A0849FFF743FFE20608D4A306BA
:1006200028464CBF05490649BDE83840FFF738BFAA
:1006300038BD00BFB9DB01008FD301007F0202008B
:10064000F6DB01002DE9F0471D46089B1746DA0648
:1006500004460E4605D499064CBF2B492B49FFF79B
:100660001FFFDFF8B0904FF00008A8452DDBDFF842
:10067000A880DFF8A890DFF89CA00025BD4232D208
:10068000725D49462046FFF70BFF0135102D23D13F
:100690001F49DFF88080DFF88890DFF888A02046C7
:1006A000FFF7FEFE0025AF4229D9725D12F809302E
:1006B00013F0970F08BF2E2251462046FFF7F0FE99
:1006C0000135102D14D1BDE8F08749462046FFF7CB
:1006D000E7FE08F10108C8E76A07CFD15146204676
:1006E000FFF7DEFECAE741462046FFF7D9FECCE71A
:1006F0006B07D8D141462046FFF7D2FED3E74146EB
:100700002046FFF7CDFEDBE77F020200F6DB0100AB
:1007100003DC010001DC0100FFDB0100F9DB01006B
:100720000007020070D001002DE9FF4111F007061B
:10073000DDE90A8705461C460BD0C1F38913C1F3D6
:10074000C201CDE900610293394613460122FFF749
:10075000B9FE0F48434622462946FFF7E7F98EB90E
:10076000013C334614F8016F002EFAD10A2B03D155
:1007700008492846FFF794FE284604B0BDE8F0413A
:100780000AF081BA324639462846FFF73DFFF3E7C3
:1007900055AC010041DC01002DE9FF470E9E984653
:1007A00001F00709C1F38913C1F3C201CDE900913A
:1007B00002933146134601220446DDE90C75FFF72A
:1007C00081FE1149824642462046FFF769FE55B92F
:1007D00020464A463146FFF717FF204604B0BDE8E1
:1007E000F0470AF050BA102DA84628BF4FF0100865
:1007F00039460096534642462046FFF723FF4744BA
:10080000A5EB0805E3E700BF8FD30100084A10B548
:100810000123084C13600021A04204D801B11360E9
:10082000054B186010BD40085B000121F4E700BFD4
:100830008409002040420F0080090020014B012262
:100840001A707047B4250020024B034801221A7029
:100850000AF019BAB52500209CCB01001FB50F2066
:10086000029007980190069800900348FFF794FFC4
:1008700005B05DF804FB00BF9CCB010007B50F205D
:100880000190049800900348FFF74EFF03B05DF815
:1008900004FB00BF9CCB0100F8B5194D07460E467E
:1008A000042432463946002005F042F8C8B101233D
:1008B0002B70144B1B782BB93046F8BD5CB92C70EB
:1008C0004FF0FF34002005F0B3F80028F4D02B7867
:1008D000002BF3D1F0E7013C41F288300BF0B5F882
:1008E000F0E72B7813B1013C04D12C702B78002B4E
:1008F000D7D1E1E741F288300BF0A7F8F6E700BF67
:10090000B4250020B52500200C4B1B6870B573B1D1
:100910000B4A15680022AA4202DB6FF0010070BD8D
:100920001C4613F8106B864204D00132F3E76FF0D7
:100930000C00F4E70C600020F1E700BFE4000020A9
:100940000CCC010042680B68934210B50C460CD9E0
:10095000084B09480949C01AC008800140F001004D
:100960000AF062F90020606010BD4B6813444B60D0
:100970000120F9E740C9010040C9010073DC010012
:100980002DE9F043054685B0C06801AA0AF0A4FB32
:10099000044670B11B481C4B1C49C01AC00880019A
:1009A000224640F001000AF03FF9204605B0BDE8BC
:1009B000F083DDF804802B6A4345F6D0EE68DDF85D
:1009C0000890B768FB685BB9BB684A464146304649
:1009D0009847FB6804468BB944B9019B2B62E4E756
:1009E00001463046984704460028EDD00548064B9E
:1009F0000749C01AC00880012246D2E701213046CB
:100A00009847E9E740C9010040C9010093DC0100B3
:100A1000B4DC01002DE9F04784680546A4B1D0E9B3
:100A20000436013C1E44A119FFF7AAFF041E0EDA8A
:100A3000454B46484649C01AC00880013346224605
:100A400040F001000AF0F0F82046BDE8F087E868C1
:100A50000AF0B7F9AA68B2FBF0F400FB14245CB109
:100A6000041BE86883681B6998472F68AB680179A5
:100A70002246F8180BF082F8AF68D5F80C80D5F84C
:100A800000A02744D8F80890D9F80C30ABB9D9F8B1
:100A900004403B46524631464046A047D9F80C3008
:100AA0000446CBB97CB9EB69002B35D12B69AA6818
:100AB00013442B610023AB60C6E7002140469847F2
:100AC00004460028E3D0204B20482249C01AC00821
:100AD000800133462246B3E7012140469847E1E7CB
:100AE000535CDB4353540131AB682A688B42F7D81F
:100AF000E86881680F683146B847074670B1124808
:100B0000124B15491B1ADB089B013A4643F00100C2
:100B10000AF08AF83C4697E72146E5E73246EB695A
:100B2000A9682868984706460028BFD00648074BA2
:100B30000A491B1ADB089B01324643F001000AF008
:100B400073F8344680E700BF40C9010040C9010086
:100B5000D0DC0100FEDC010022DD010038DD0100F7
:100B60002DE9F7430D46DDE90A8691461F46044606
:100B700020B96FF00D0003B0BDE8F0830029F8D074
:100B8000002AF6D000930846002301930AF019F9D1
:100B9000B7FBF0F303FB107050B11D481D4B1E490D
:100BA000C01AC008800140F001000AF03DF8E0E7FB
:100BB0001A496A4628460AF093FA019B002BD8D0BE
:100BC00008EB0602934206D21148124B1449C01A90
:100BD000C0088001E7E728460AF0F3F8B8FBF0F315
:100BE00003FB10800028EFD1C4E90097E560206185
:100BF000A060C4F8148016B9019EA6EB08060C9BF1
:100C0000E3614FF0FF33A66123620020B3E700BF2A
:100C100040C9010040C901004CDD01004509010047
:100C200083DD01002DE9F84305464FF02003EFF383
:100C3000118683F31288BFF36F8F234805F0D4FA2F
:100C400068B9224A22492348812309F03FFE1E4900
:100C5000214809F03BFE1D48812109F0D0FF1A48C8
:100C600005F0E0FA1D4B1C68002C38BF00249CB135
:100C70001B4FDFF878804FF00C09D4E90132002DCA
:100C800008BF13462BB198F8142009FB02F2B85C98
:100C900098472468002CF0D10B4805F0B3FA68B9E6
:100CA0000A4A10490B48AC2309F010FE06490E48C9
:100CB00009F00CFE0548AC2109F0A1FF86F311886C
:100CC000BFF36F8FBDE8F8839C0900203FD8010077
:100CD00091D80100DCD20100A6D80100A0090020B3
:100CE000AC09002065D801007CD80100E810002084
:100CF00000F01F0301229A400A4BBFF35B8F4009AB
:100D000003EB800050E8003F43EA020140E8001C8A
:100D1000BCF1000FF6D1BFF35B8F1A4214BF012064
:100D200000207047B809002030B51D4B1D7DBFF372
:100D30005B8F05F01F0301229A401A4B690985B0A9
:100D4000D04303EB810353E8001F01EA000443E8AA
:100D5000004CBCF1000FF6D1BFF35B8F114217D0EE
:100D6000114C0C2202FB054207CA01AB83E80700C5
:100D70000E4A7AB193E807000AF0BAF80020FFF7AC
:100D800051FF0C236B430022E118E250C1E901221C
:100D900005B030BD82F31188BFF36F8FEEE700BF5F
:100DA000E8100020A8090020AC090020F1AE0100E5
:100DB0002DE9F041374BDFF8F4801C7D88B0074601
:100DC0002046FFF795FF60B96E463A462146304609
:100DD0000AF043F896E807000C2505FB048585E832
:100DE00007000C23634308EB030218F803006509AE
:100DF00004F01F06C8B37B1C0FD0D2F808E02648C9
:100E0000264A4FF4004C00210023ECFB0E01FBF7B7
:100E100095FE0121381A07F0C7FC06F0CBF9012036
:100E2000FFF700FFBFF35B8F1D4B0122B24003EBC6
:100E3000850353E8001F114343E800100028F8D150
:100E4000BFF35B8F0C2303FB048494E8070005AB1E
:100E500083E80700134A1AB193E807000AF035F84F
:100E6000FFF762FF06F0EAFE01200F4ABFF35B8F37
:100E70000123B340DB4302EB850555E8002F1A4000
:100E800045E800210029F8D1BFF35B8F08B0BDE829
:100E9000F08100BFE81000203F420F0040420F00E9
:100EA000A8090020CBAE0100B8090020AC09002041
:100EB000014808F00BB900BF10CC010008B5D0B153
:100EC0004368042B11D100220368BFF35B8F53E802
:100ED000001F012903D143E800200028F7D1BFF308
:100EE0005B8F074808BF104608BD3BB1006805F09E
:100EF000CDFA0020F8E76FF4E040F5E70148F3E7AA
:100F0000E98FFFFFEA8FFFFF10B5044618B90D4BBC
:100F10000D485B689847616808290DD031F00403DB
:100F20000AD011F0020108D00848214604F0B6FFAB
:100F3000002323600023636010BD206814220AF0A0
:100F40001DFEF7E7CC010020BADD0100BC0900203E
:100F500010B5044618B9164B16485B689847636885
:100F6000042B23D0082B21D0CBB92368BBB912485E
:100F70004FF0FF324FF0FF33214604F023FF08B952
:100F800023681BB90A4B0D485B68984720681422F8
:100F900000210AF0F3FD636843F0020363602068F8
:100FA0000AF0F5FC636843F00103636010BD00BF05
:100FB000CC010020BADD0100BC090020E0DD010009
:100FC00008B508B34368042B10D101220368BFF3AE
:100FD0005B8F53E8001F002903D143E8002000285D
:100FE000F7D1BFF35B8F0BD1002008BD53B1006870
:100FF0004FF0FF324FF0FF3305F048F90028F3D0EF
:101000000348F2E70348F0E76FF4E040EDE700BF84
:10101000E98FFFFFEA8FFFFF08B506490648402326
:1010200014220AF084FCBDE808400449044808F092
:10103000AFB800BFDC090020BC09002028CC0100AB
:1010400018CC0100014910220A60704710ED00E041
:1010500072B6404080F31188BFF36F8FBFF34F8F9C
:1010600030BF62B6BFF36F8F704700BF72B64940A2
:1010700081F3118820BF80F3118862B6704700BFEA
:1010800073B506460C4601B3134B144DED1AED082B
:101090008B680093AD0145F00105D1E90023284696
:1010A0000F4909F0C1FD63690093D4E903230D4999
:1010B000284609F0B9FDE2690B49284609F0B4FD5C
:1010C000A2690A49284609F0AFFD2146304602B020
:1010D000BDE8704004F002BD40C90100C8C901006C
:1010E0000DDE01003CDE01006BDE01007ADE010056
:1010F00043B2002B08DB012200F01F0002FA00F0CF
:101100005B09024A42F82300704700BF00E100E09B
:1011100043B2002B0DDB01225B0900F01F0002FA35
:1011200000F02033034A42F82300BFF34F8FBFF390
:101130006F8F704700E100E0054B420900F01F008F
:1011400053F82220012303FA00F01040704700BF3B
:1011500000E100E070B54C1C072C05460E460FD987
:10116000114A12491248592309F0B0FB114831467F
:1011700007232A4609F0AAFB0B48592109F03FFD35
:101180006BB2002BACBF03F160430B4B4FEA44142E
:10119000B8BF05F00F05E4B2AABF03F561435C5583
:1011A00083F8004370BD00BFA8DE0100DEDE010051
:1011B000DCD20100F9DE010014ED00E030BFFFF7E2
:1011C000FDBF00BF0B4A08B50B4B22F07F029A60AF
:1011D000BFF34F8FBFF36F8FD3F8882022F47002D4
:1011E000C3F8882004F034FD07F00AF900F07AFB18
:1011F00004F038FD00C2000000ED00E0094A0A4991
:10120000936809689967094958674B6843F08053A8
:101210004B60002383F31188BFF36F8F9368986F3F
:10122000704700BFE8100020F8CD010000ED00E09D
:1012300012498A684FF030001044EFF3098C80E8BF
:10124000F01F202080F31288BFF36F8F0C4F4FF0F8
:101250000066CA698A603E60506F0023536780F35E
:10126000118804B5104600F0D3FBBDE8044002F13C
:10127000300090E8F01F8CF309887047E8100020D8
:1012800004ED00E01EF0040F0CBFEFF30880EFF355
:101290000980816911F8021C0229FFD001B509F00B
:1012A000E5FD01BD42F8203C009B42F81C3C0A4988
:1012B000019B42F8183C029B42F8143C21F00101CA
:1012C0004FF0807342F8043C42F8081C0023203A97
:1012D00002654367704700BF8FA901000B4A0346B0
:1012E000906890B113F1160F406E05D0A0F1200266
:1012F0009A4206D8834204D281422CBF00210121A8
:1013000000E00021002908BF00207047E8100020FD
:1013100008B5094B98600D46144600F079FB20464D
:1013200085F30988002163B681F31188BFF36F8FBD
:101330000022002309F02BFBE810002001B572B653
:101340000B4A906900281EBF002191610AF018FB2A
:1013500062B6EFF30580A0F110004FEAC000054926
:10136000014409C99847BDE8014003490847000006
:10137000E8100020C0C701007D130100044B9968EC
:10138000D869884203D003494FF080520A60704701
:10139000E810002004ED00E02DE9F0473F4B404C01
:1013A000404DE41AE408A40144F0010907468846C8
:1013B00048463D49164609F037FCAA6AD30603D5CC
:1013C0003A49484609F030FCAB6A180704D5384959
:1013D00044F0010009F028FC324DAB6A990724D48F
:1013E0006FF015092F4DAA6AD30704D5314944F08F
:1013F000010009F019FCAB6A9D0604D52E4944F0A2
:10140000010009F011FC274DAB6AD80625D4AB6A60
:10141000990722D40024234A936A43F0FF0393627E
:10142000002333702046BDE8F08744F0010A2349C9
:10143000504609F0F9FBD5F83490AB6A1A06CFD5BF
:101440001F494A46504609F0EFFBB8F1000FC9D0DA
:10145000AB6A23F08003AB62C4E76B681A05D9D589
:1014600039464846FFF73AFF044618B180F3098829
:101470000224D0E7AB6ADB06CCD5124A12491348E6
:1014800040F2491309F022FA114809F01FFA0D48F9
:1014900040F2491109F0B3FBBDE700BF40C90100AC
:1014A000C8C9010000ED00E039DF01004FDF010095
:1014B00082DF0100C3DF0100E2DF010095DF0100F0
:1014C000ADDF010011E001004BE00100DCD20100C2
:1014D00095E001002DE9F041294B2A4C2A4DE41AF0
:1014E000E408A40144F0010807460E464046274997
:1014F00009F09AFBAA6AD10403D52549404609F0B0
:1015000093FBAB6A1A0504D5224944F0010009F0A7
:101510008BFB1D4DAB6A9B0512D544F0010840467C
:101520001D4909F081FBAA6BAB6A180408D51B4959
:10153000404609F079FB1FB1AB6A23F40043AB626C
:10154000114DAB6A590504D5154944F0010009F065
:101550006BFBAB6ADA050DD5124944F0010009F0C6
:1015600063FB094A936A002043F47F43936230701F
:10157000BDE8F081AB6A9B04F3D50B49EDE700BFF2
:1015800040C90100C8C9010000ED00E0B8E0010059
:10159000CEE0010082DF0100DFE00100F8E00100A1
:1015A0000DE1010028E10100E2DF010070B5234BED
:1015B000234C244D2449E41AE408A40144F0010614
:1015C000304609F031FBAA6A930103D51F49304622
:1015D00009F02AFBAB6ADD0104D51D4944F0010086
:1015E00009F022FB174DAA6A100304D5194944F0EB
:1015F000010009F019FBAB6A590304D5164944F000
:10160000010009F011FB0F4DAA6A920304D513499A
:1016100044F0010009F008FBAB6ADB0304D5104974
:1016200044F0010009F000FB064A936A6FEA0343A5
:101630006FEA13439362002070BD00BF40C90100F0
:10164000C8C9010000ED00E040E1010058E10100DF
:101650006BE1010085E10100A3E10100C8E10100A7
:10166000E2E101002DE9F0417F4B5E688AB00D4652
:10167000C6F30804002787F31188BFF36F8F02F0C9
:101680007F43B3F17F4F0DD102F00C03082B1AD129
:101690007648774B7749C01AC008800140F00100B6
:1016A00009F0C2FA744A7549754840F2F23309F0FC
:1016B0000DF9744809F00AF96F4840F2F23109F067
:1016C0009EFA002505E012075CBF05460127002DA4
:1016D000E8D000238DF80730E31E092B00F2AA8022
:1016E000DFE803F005979B77A8A8A8A8A89F604B00
:1016F0005E4E6549F61AF608B60146F00106304618
:1017000009F092FA584BDC6A4FF0000814F002041A
:101710008DF8078005D05D49304609F085FA002430
:1017200006E0DA6A002A24DA5949304609F07CFAE0
:101730009DF80730D3B902AA05F120062868696828
:10174000134603C30835B5421A46F7D1099B002F4B
:1017500000F08480C3F3080222B96FEA53236FEAD2
:101760004323099302A92046FFF78AFC0AB0BDE88B
:10177000F081DB6A5B003FD54649304609F054FAF8
:10178000AB6933F8022C4DF602739A420DD003F187
:10179000604303F626631B7873B10DF10702012144
:1017A0002846FFF7F9FD0446C2E72A683A49304661
:1017B00009F03AFA2C68BBE7384B1B782BB10DF1D6
:1017C00007010120FFF786FEEDE7354B1B889BB232
:1017D00013B1FFF7EBFEE6E73249274A284840F20B
:1017E000C32309F073F8304809F070F840F2C321C0
:1017F000214809F004FA9BE72A491F4A204840F291
:10180000C72309F063F8294809F060F840F2C721BE
:10181000EEE70DF107020021C2E70DF107010020FC
:10182000D0E71248124B2249C01AC008800140F08C
:10183000010072E70E4B0D481E491F4AC01AC0082E
:1018400016F4F87F4FEA801008BF0A46A4F110038F
:101850001A4940F0010009F0E7F960E723F4FF734B
:1018600023F001037DE700BF00ED00E0C8C90100DF
:1018700040C901003BE2010011E0010066E2010005
:10188000DCD2010079E20100B7E20100CEE2010002
:10189000EFE20100FDE201001CE3010029ED00E0A0
:1018A0002AED00E0D805020038E301005CE3010006
:1018B0008CE301000DE2010022E20100B0E301002F
:1018C000024A536943F010035361704700ED00E092
:1018D000EFF30880EFF3098101B57246FFF7C2FE0E
:1018E00001BD00BF044800232021C2180133302B62
:1018F00082F80013F9D1704700E100E0002080F386
:101900001488BFF36F8F0AF0C9FE00200D490860EC
:10191000BFF34F8F0C4880F3088800F029F820208F
:1019200080F3118809484FF40261401880F3098858
:10193000EFF314800221084380F31488BFF36F8F04
:10194000FFF740FC94ED00E0A04B0020204D00206C
:10195000064A11680023C1F3072118468B4200D1C3
:101960007047936010610133F8E700BF90ED00E02D
:1019700008B572B6002383F31388FFF7E9FF144B11
:101980004FF0FF32C3F88020C3F88420C3F88820CA
:10199000C3F88C20C3F89020C3F89420C3F8982093
:1019A000C3F89C20C3F88021C3F88421C3F88821A0
:1019B000C3F88C21C3F89021C3F89421C3F898216F
:1019C000C3F89C2162B6BFF34F8FBFF36F8F08BD82
:1019D00000E100E0064B9B68834207D1EFF30583EB
:1019E00023B1044A536843F08053536006F0EABBC6
:1019F000E810002000ED00E0024B034A03480121FB
:101A000000F082B800000420000000203CCC01005F
:101A1000426E054B203A1A60044A2021C3E90112A4
:101A20001846012100F098B8DC0E002000000B15CC
:101A3000F8B5274F154600228A4214DA4468002C74
:101A400043D0C3B104F1FF3C14EA0C0F0DD0214880
:101A5000214B2249C01AC008800140F0010009F062
:101A6000E3F86FF015052846F8BD1F2CEFD906687E
:101A70001CEA060FEBD1202C0668D0F808C0EDB2A6
:101A800014D9B4F1004F13D8013CB4FA84F4C4F172
:101A90001F046400072D4CEA04040BD90D480E4BBB
:101AA0000F49C01AC00880012A46D6E70824F1E78A
:101AB0003E24EFE726F01F062E4346F0100644F0C2
:101AC0000104BD60FE6001353C6101320C30B3E7BA
:101AD00090ED00E0C0C9010040C90100C7E301006A
:101AE000EAE30100034B05225A60BFF34F8FBFF3B7
:101AF0006F8F704790ED00E0BFF35F8F014B0022C6
:101B00005A60704790ED00E038B50E4D01232A78F9
:101B10000C46FFF78DFF2870163011D140F21113DB
:101B2000094A0A490A4808F0D1FE2146094808F046
:101B3000CDFEBDE83840044840F2111109F05FB80D
:101B400038BD00BFB625002010E40100D805020012
:101B5000DCD2010047E4010010B5124A00231278DC
:101B60000C46FFF765FF10F1160F08D00E4B002250
:101B7000072800DD10BD98601A610130F8E70B4AB4
:101B80000B490C484FF4987308F0A0FE21460A4810
:101B900008F09CFEBDE8104004484FF4987109F02D
:101BA0002EB800BFB625002090ED00E010E4010043
:101BB000D8050200DCD2010073E40100254910B50C
:101BC0000C68082C13D94FF4A473234A23492448E2
:101BD00008F07CFE23480822214608F077FE1E48C4
:101BE0004FF4A47109F00BF84FF0FF3010BDFFF770
:101BF00083FF48681C490022944200F10C0019D16F
:101C00001A4B1C70FFF76EFF0B68C3F30723082BFA
:101C10000ED01749104A12484FF4D47308F056FEFC
:101C2000144808F053FE0C484FF4D47108F0E7FF55
:101C30000020DBE78A6050F80C3C23F01F031343BD
:101C400043F01003CB6050F8043C43F001030B61F8
:101C50000132D1E748CC010010E40100D8050200B0
:101C6000DCD20100A0E4010090ED00E0B6250020E8
:101C7000D4E4010024E5010008B50B4BC3F1005387
:101C800003F58023B3F5006F0CD20849084A0948D0
:101C9000812308F01BFE084808F018FE0448812143
:101CA00008F0ADFF002008BD606D002075E5010063
:101CB00045E50100DCD20100BCE50100014B1860E4
:101CC000704700BF0C010020F8B5084F06460D46CE
